{
  "address": "0x779C6E01f53c448b9318820803351C63253EBE5d",
  "abi": [
    {
      "inputs": [],
      "stateMutability": "nonpayable",
      "type": "constructor"
    },
    {
      "anonymous": false,
      "inputs": [
        {
          "indexed": true,
          "internalType": "address",
          "name": "oldOwner",
          "type": "address"
        },
        {
          "indexed": true,
          "internalType": "address",
          "name": "owner",
          "type": "address"
        }
      ],
      "name": "ownerChanged",
      "type": "event"
    },
    {
      "inputs": [],
      "name": "getOwner",
      "outputs": [
        {
          "internalType": "address",
          "name": "",
          "type": "address"
        }
      ],
      "stateMutability": "view",
      "type": "function"
    },
    {
      "inputs": [
        {
          "internalType": "address",
          "name": "_newOwner",
          "type": "address"
        }
      ],
      "name": "transferOwnership",
      "outputs": [],
      "stateMutability": "nonpayable",
      "type": "function"
    }
  ],
  "transactionHash": "0x5d9187338e81767be1d9f0a5e6927843e41976e6545fc638e46d946417090692",
  "args": [],
  "numDeployments": 1,
  "solcInputHash": "7097b15229a825c22f29268d370f7358",
  "bytecode": "0x608060405234801561001057600080fd5b50336000806101000a81548173ffffffffffffffffffffffffffffffffffffffff021916908373ffffffffffffffffffffffffffffffffffffffff16021790555060008054906101000a900473ffffffffffffffffffffffffffffffffffffffff1673ffffffffffffffffffffffffffffffffffffffff16600073ffffffffffffffffffffffffffffffffffffffff167f232fba693394e47cdbc6f4760e24687abfb144ddca4600a356321757a0a129fb60405160405180910390a3610395806100db6000396000f3fe608060405234801561001057600080fd5b50600436106100365760003560e01c8063893d20e81461003b578063f2fde38b14610059575b600080fd5b610043610075565b6040516100509190610243565b60405180910390f35b610073600480360381019061006e919061028f565b61009e565b005b60008060009054906101000a900473ffffffffffffffffffffffffffffffffffffffff16905090565b3373ffffffffffffffffffffffffffffffffffffffff1660008054906101000a900473ffffffffffffffffffffffffffffffffffffffff1673ffffffffffffffffffffffffffffffffffffffff161461012c576040517f08c379a00000000000000000000000000000000000000000000000000000000081526004016101239061033f565b60405180910390fd5b600073ffffffffffffffffffffffffffffffffffffffff168173ffffffffffffffffffffffffffffffffffffffff160361016557600080fd5b806000806101000a81548173ffffffffffffffffffffffffffffffffffffffff021916908373ffffffffffffffffffffffffffffffffffffffff1602179055508073ffffffffffffffffffffffffffffffffffffffff163373ffffffffffffffffffffffffffffffffffffffff167f232fba693394e47cdbc6f4760e24687abfb144ddca4600a356321757a0a129fb60405160405180910390a350565b600073ffffffffffffffffffffffffffffffffffffffff82169050919050565b600061022d82610202565b9050919050565b61023d81610222565b82525050565b60006020820190506102586000830184610234565b92915050565b600080fd5b61026c81610222565b811461027757600080fd5b50565b60008135905061028981610263565b92915050565b6000602082840312156102a5576102a461025e565b5b60006102b38482850161027a565b91505092915050565b600082825260208201905092915050565b7f4f6e6c79206f776e65722063616e2063616c6c20746869732066756e6374696f60008201527f6e00000000000000000000000000000000000000000000000000000000000000602082015250565b60006103296021836102bc565b9150610334826102cd565b604082019050919050565b600060208201905081810360008301526103588161031c565b905091905056fea26469706673582212203c59f4284d1ed490c27dd1af60099ace163aa263c0b2a9a85ed0744915dca96d64736f6c63430008110033",
  "devdoc": {
    "kind": "dev",
    "methods": {
      "getOwner()": {
        "details": "Return current owner of the contract"
      },
      "transferOwnership(address)": {
        "details": "owner of the contract transfer onwership to new owner",
        "params": {
          "_newOwner": "Address of the new owner"
        }
      }
    },
    "version": 1
  },
  "userdoc": {
    "kind": "user",
    "methods": {
      "constructor": {
        "notice": "Constructor "
      }
    },
    "notice": "This contract manage owner of the contract",
    "version": 1
  },
  "storageLayout": {
    "storage": [
      {
        "astId": 94,
        "contract": "contracts/Token.sol:owned",
        "label": "owner",
        "offset": 0,
        "slot": "0",
        "type": "t_address"
      }
    ],
    "types": {
      "t_address": {
        "encoding": "inplace",
        "label": "address",
        "numberOfBytes": "20"
      }
    }
  }
}